:020000040800F2
:10000000600600206D0300087503000877030008F0
:10001000790300087B0300087D030008000000004E
:100020000000000000000000000000007F03000846
:100030008103000800000000830300088503000816
:100040008703000887030008870300088703000868
:100050008703000887030008870300088703000858
:100060008703000887030008870300088703000848
:100070008703000887030008870300088703000838
:100080008703000887030008870300088703000828
:100090008703000887030008870300088703000818
:1000A0008703000887030008870300088703000808
:1000B00087030008870300088703000887030008F8
:1000C00087030008870300088703000887030008E8
:1000D00087030008870300088703000887030008D8
:1000E00087030008870300088703000800F002F870
:1000F00000F02CF80AA090E8000C82448344AAF196
:100100000107DA4501D100F021F8AFF2090EBAE893
:100110000F0013F0010F18BFFB1A43F0010318473B
:100120002C0400003C0400000023002400250026CD
:10013000103A28BF78C1FBD8520728BF30C148BF4A
:100140000B6070471FB51FBD10B510BD00F031F931
:100150001146FFF7F7FF00F0F7F900F04FF903B48D
:10016000FFF7F2FF03BC00F057F90000694801688F
:1001700041F480310160016811F40031FBD0016865
:1001800041F40031016064484FF03201016063487E
:10019000016841F4EA1141F4806101605D48016841
:1001A00041F080710160016811F00071FBD05B4883
:1001B000016841F4EA1141F4806141F002010160FB
:1001C000574844F2140101605648016841F040511B
:1001D00021F0404101605448016841F0300141F094
:1001E000800121F040010160504840F2712101601E
:1001F0004F4842F20C0101604E4842F22831016042
:100200004D484FF0030101604C4880F309884FF0DE
:10021000030080F314884FF0000149480160494809
:10022000016049480160494801604948016044480B
:10023000016811F0020FFAD046484FF0000101604A
:1002400000F03BF84FF0480000F02DF84FF065004B
:1002500000F029F84FF06C0000F025F84FF06C002A
:1002600000F021F84FF06F0000F01DF84FF0200073
:1002700000F019F84FF0770000F015F84FF06F001C
:1002800000F011F84FF0720000F00DF84FF06C0024
:1002900000F009F84FF0640000F005F84FF00A0094
:1002A00000F001F8C3E70FB42B4A10602B4A126824
:1002B00012F0400FFAD00FBC70470FB4204801680D
:1002C00011F0010F09D026484FF0000101602548C8
:1002D000016841F08001016008E021484FF0010110
:1002E00001602148016841F0800101600FBC704746
:1002F000704770471648016801F101010160B1F5CE
:10030000FA7F06D34FF00001016012484FF001015F
:1003100001607047001002400020024004100240BB
:100320001810024000100140040801400838014044
:100330000C38014014E000E010E000E0004E002026
:100340000002002004020020080200200C0200200D
:10035000100200200440002204380140003801400F
:10036000004000221410014010100140094880474D
:1003700009480047FEE7FEE7FEE7FEE7FEE7FEE787
:10038000FEE7FEE7FEE7FEE704480549054A064B9F
:1003900070470000F1040008ED0000086000002034
:1003A0006006002060020020600200207047704755
:1003B0007047754600F02CF8AE4605006946534676
:1003C00020F00700854618B020B5FFF7DDFFBDE837
:1003D00020404FF000064FF000074FF000084FF0AC
:1003E000000BAC46ACE8C009ACE8C009ACE8C009F9
:1003F000ACE8C00921F007018D46704710B50446EE
:10040000AFF300802046BDE81040FFF7A8BE000013
:10041000004870470000002001491820ABBEFEE7ED
:10042000260002007047000080B500F001F880BD92
:1004300082B041F204000021C4F202000191009157
:1004400050F8041C41F4803140F8041C50F8041C9E
:1004500001F400310091019901310191009919B91C
:100460000199B1F5A06FF1D150F8041C890354BF74
:100470000021012100910099012936D142F20001A9
:10048000C4F202010A6842F010020A600A6822F00F
:1004900003020A600A6842F002020A600168016011
:1004A00001680160016841F480610160016821F424
:1004B0007C110160016841F4E811016050F8041CEE
:1004C00041F0807140F8041C50F8041C8901FBD5F0
:1004D000016821F003010160016841F0020101603F
:1004E000016801F00C010829FAD102B07047000040
:1004F00080B541F20000C4F202000168002241F020
:10050000010101604168CFF6FF02114041600168BE
:100510004FF6FF72CFF6F66211400160016821F4D8
:1005200080210160416821F4FE0141604FF41F0108
:100530008160FFF779FF4EF60850CEF200004FF0D1
:100540000061016080BD0000002070475C0500086C
:0C055000000000206006000028010008E8
:040000050800036D7F
:00000001FF
