:020000040800F2
:10000000E007002089010008D71600089D150008A8
:10001000D5160008CF020008411A000800000000B1
:10002000000000000000000000000000DB160008D7
:10003000E902000800000000D9160008DD160008DB
:10004000A3010008A3010008A3010008A301000800
:10005000A3010008A3010008A3010008A3010008F0
:10006000A3010008A3010008A3010008A3010008E0
:10007000A3010008A3010008D1020008DD02000866
:10008000A3010008A3010008A3010008A3010008C0
:10009000A3010008A3010008A3010008A3010008B0
:1000A000A3010008A3010008A3010008A3010008A0
:1000B00041170008A3010008A3010008A3010008DC
:1000C000A3010008A3010008A3010008A301000880
:1000D000A3010008351A0008A3010008A3010008C5
:1000E000A3010008A3010008A301000800F002F822
:1000F00000F03AF80AA090E8000C82448344AAF188
:100100000107DA4501D100F02FF8AFF2090EBAE885
:100110000F0013F0010F18BFFB1A43F0010318473B
:1001200080190000A0190000103A24BF78C878C1D7
:10013000FAD8520724BF30C830C144BF04680C60ED
:10014000704700000023002400250026103A28BF35
:1001500078C1FBD8520728BF30C148BF0B60704739
:100160001FB51FBD10B510BD00F077F81146FFF7A1
:10017000F7FF01F077FC00F095F803B4FFF7F2FF0A
:1001800003BC00F09DF8000009488047094800477B
:10019000FEE7FEE7FEE7FEE7FEE7FEE7FEE7FEE737
:1001A000FEE7FEE704480549054A064B7047000094
:1001B0003F170008ED000008E0010020E0070020E4
:1001C000E0030020E003002010B5431C02E010F81B
:1001D000011B71B18107FAD14FF0013202C88C1AAC
:1001E0008C4314EAC211F9D0C01A0A0603D0C01E0B
:1001F00010BDC01A10BD0A0401D0801E10BD090236
:10020000FCD0401E10BD4FF0000200B513469446CE
:100210009646203922BFA0E80C50A0E80C50B1F15E
:100220002001BFF4F7AF090728BFA0E80C5048BF72
:100230000CC05DF804EB890028BF40F8042B08BF10
:10024000704748BF20F8022B11F0804F18BF00F80C
:10025000012B7047704770477047754600F02CF8C7
:10026000AE4605006946534620F00700854618B0A3
:1002700020B5FFF797FFBDE820404FF000064FF094
:1002800000074FF000084FF0000B21F00701AC46CB
:10029000ACE8C009ACE8C009ACE8C009ACE8C009EA
:1002A0008D46704710B50446AFF300802046BDE888
:1002B0001040FFF762BF0000004870477C0100203B
:1002C00001491820ABBEFEE7260002007047FEE79A
:1002D000014800F07BB8000038010020014800F020
:1002E00075B80000F4000020704772B6FEE710B544
:1002F00090F821100022022905D00421816380F8A2
:100300002020012010BD01680B6823F00E030B6054
:1003100001680B6823F001030B6090F84030C46B58
:10032000012101FA03F3636080F8211080F8202096
:10033000104610BD10B590F821100024022903D0FA
:100340000421816301243DE001680A6822F00E0265
:100350000A6001680A6822F001020A601A4A01680C
:10036000914201D1012121E0174A1432914201D179
:1003700010211BE0144A2832914201D1891515E061
:10038000114A3C32914201D189140FE00E4A503299
:10039000914202D14FF4803108E00B4A643291421D
:1003A00002D14FF4801101E04FF08071064A083A03
:1003B0005160012180F82110002180F82010416B4C
:1003C00001B18847204610BD080002402DE9F05FCA
:1003D000C16B0C6801680B68D0F840C0042202FAB7
:1003E0000CF2494DDFF824A1494E4A4FDFF828B1FD
:1003F000DFF828E122422CD05A072AD50A68920653
:1004000003D40A6822F004020A600168A94201D1FB
:10041000042219E0514501D1402215E0B14202D138
:100420004FF4806210E0B94202D14FF480420BE0F9
:10043000594502D14FF4802206E0714502D14FF4B4
:10044000800201E04FF080622F4908394A60C16A9A
:100450003BE04FF0020808FA0CF818EA040F4FF0DE
:1004600000094FF0010235D05FEA837832D50B687E
:100470009B0605D40B6823F00A030B6080F821204B
:100480000168A94201D1022219E0514501D120227F
:1004900015E0B14202D14FF4007210E0B94202D12E
:1004A0004FF400520BE0594502D14FF4003206E000
:1004B000714502D14FF4001201E04FF00072124971
:1004C00008394A6080F82090816A00291AD0BDE876
:1004D000F05F0847082505FA0CF5254212D01B07E6
:1004E00010D50B6823F00E030B6090F84010C36B1F
:1004F00002FA01F15960826380F8212080F820908F
:10050000016BE2E7BDE8F09F080002401C000240DA
:100510003000024044000240580002406C0002409B
:1005200030B528B308C8134914221944B1FBF2F1BD
:100530008900C16310498163022141771A6843F63B
:10054000F0718A43D0E900142143D0E902452C43DD
:1005500021430469214344692143846921431143B0
:10056000196000214163012242770177084630BDBE
:10057000012030BDF8FFFDBF000002402DE9F84F1B
:10058000DFF8B891002409F1040A0AF1040B2346AC
:100590000F270BF1040EC9E00125A5402A40AA420D
:1005A0007DD1674ED1F804C0ACEB0608B44532D01B
:1005B00014DCBCF1030F3AD009DCBCF1000F2AD0E7
:1005C000BCF1010F1CD0BCF1020F31D11DE0BCF118
:1005D000110F17D0BCF1120F2AD119E0B8F5881FFE
:1005E00019D006DCB8F5803F15D0B8F5801F1FD1B3
:1005F00011E0B8F5001F0ED0B8F5041F18D10AE0BD
:10060000CB6815E0CB681B1D12E0CB6808330FE008
:10061000CB680C330CE08B682BB1012B4FF0080337
:1006200003D0456104E0042302E0056100E00023FB
:10063000FF2A01D8064601E000F104064FEA8405CE
:1006400001D9A5F12005D6F8008007FA05FC28EAB3
:100650000C0803FA05F548EA0508C6F800804D685D
:10066000ED0062D5374DAE6946F00106AE61AD6969
:1006700024F0030605F001050095334D06EB050C4B
:10068000DCF80850A607360F07FA06F825EA080531
:10069000DFF8B880404503D14FF0000817E044E090
:1006A000DFF8AC80404502D14FF001080FE0DFF8E1
:1006B000A480404502D14FF0020808E0DFF898809E
:1006C000404502D14FF0030801E04FF0040808FA5A
:1006D00006F848EA0508CCF808804D68D9F80060AB
:1006E000ED034D4601D5164300E096432E604D685C
:1006F000DAF80060AD03554601D5164300E0964395
:100700002E604D68DBF80060ED025D4601D51643B2
:1007100000E096432E604D68DEF80060AD0275463D
:1007200001D5164300E096432E60641C0D682A46EE
:10073000E5407FF431AFBDE8F88F000000040140D0
:1007400000001110001002400000014000080140AC
:10075000000C014000100140001401400148806875
:10076000704700001400002002488168027811449C
:100770008160704714000020074810B5016841F0FF
:1007800010010160032000F06DF80F2000F006F862
:1007900000F024F8002010BD0020024070B50D4D7F
:1007A00004464FF47A712878B1FBF0F00A490968E1
:1007B000B1FBF0F000F0E4FA48B9102C07D20022A7
:1007C0002146501E00F02EF800206C6070BD012004
:1007D00070BD00001400002020000020094808B56A
:1007E000816941F001018161816901F0010100919C
:1007F000C16941F08051C161C06900F08050009032
:1008000008BD000000100240002809DB00F01F02B4
:10081000012191404009800000F1E020C0F8001162
:1008200070470000F0B40E4B1B680C46C3F3022364
:10083000C3F10705042D00D90425191D072901D28C
:10084000002300E0DB1E012606FA05F1491E2140C7
:1008500099409E40761E16403143F0BC01F0F1B83D
:100860000CED00E0064900F0070208684FF6FF03B0
:10087000184040EA0220034A104308607047000015
:100880000CED00E00000FA052DE9F0470F460500E9
:1008900061D0434E306800F00700B84209D230689A
:1008A00020F0070038433060306800F00700B8429D
:1008B00051D128683B4C810712D5400703D56068A9
:1008C00040F4E06060602878000703D5606840F479
:1008D000605060606068A96820F0F00008436060C4
:1008E0002878C00728D06868012810D0216802281D
:1008F00010D0890700292EDA616821F00301014335
:100900006160FFF72BFF804641F288390DE02168D6
:100910008903EFE78901EDE7FFF720FFA0EB08016E
:10092000494502D90320BDE8F0876068696800F096
:100930000C00B0EB810FEFD1306800F00700B84237
:100940000BD9306820F0070038433060306800F081
:100950000700B84201D00120E5E72878400705D517
:100960006068E96820F4E060084360602878000768
:1009700006D56068296920F4605040EAC1006060D3
:1009800000F038F86168084AC1F30311515CC840AF
:100990000649086006480068FFF700FF0020C2E72C
:1009A0000020024000100240881A000820000020A9
:1009B000180000200448054900684968044AC1F34A
:1009C0000221515CC8407047200000200010024006
:1009D000981A00080448054900684968044AC1F3A8
:1009E000C221515CC8407047200000200010024026
:1009F000981A000812A185B00FC98DE80F0014A045
:100A0000144A006804905168134801F00C03042B49
:100A100010D0082B0ED1C1F38343C9031DF8030086
:100A20000AD5516804AAC1F34041515C0A4A5043B7
:100A3000B0FBF1F005B0704708494843FAE7000001
:100A400002030405060708090A0B0C0D0E0F10100F
:100A5000010200000010024000127A0000093D006F
:100A60002DE9F84F040070D02078C04DC00749D060
:100A70006868C0F38100012807D06868C0F381006E
:100A8000022809D16868C00306D52868800339D5D3
:100A900060680028E7D035E06068B0F5803F0BD093
:100AA00010B1B0F5A02F11D0286820F48030286054
:100AB000286820F4802002E0286840F48030286014
:100AC000606890B1FFF74AFE06460AE0286840F4E5
:100AD00080202860F0E700BFFFF740FE801B6428FD
:100AE00073D828688003F7D50CE0FFF737FE064679
:100AF00005E000BFFFF732FE801B6428F0D82868AD
:100B00008003F7D420789A4E80074FF001094FF008
:100B1000000839D5686810F00C0F07D06868C0F37A
:100B20008100022809D16868C00306D428688007BC
:100B300014D52069012808D110E02069B0B1C6F8A9
:100B40000090FFF70BFE074605E00AE1FFF706FEFF
:100B5000C01B0228C4D828688007F7D528686169B7
:100B600020F0F80040EAC10028600DE0C6F80080DF
:100B7000FFF7F4FD074604E0FFF7F0FDC01B022875
:100B800023D828688007F7D4207800072CD5794827
:100B9000A169D9B1C0F80090FFF7E0FD074604E075
:100BA000FFF7DCFDC01B02280FD8686A8007F7D565
:100BB00071484FF4FA510068B0FBF1F0009000BFAB
:100BC0000098411E0091FAD20EE080E0C0F800804B
:100BD000FFF7C4FD074604E0FFF7C0FDC01B022875
:100BE00075D8686A8007F7D42078400760D5E8692F
:100BF0000027C00008D4E86940F08050E861E86947
:100C0000012700F0805000905C480168C90513D4AA
:100C10000168834641F480710160FFF79FFD8246C1
:100C200006E000BFFFF79AFDA0EB0A0064284ED84B
:100C3000DBF80000C005F5D5E06801280AD008B14E
:100C4000052813D0286A20F001002862286A20F0C5
:100C5000040002E0286A40F001002862E06841F2E6
:100C6000883B98B1FFF77AFD82460BE0286A40F096
:100C700004002862EEE700BFFFF770FDA0EB0A0159
:100C800059455AD8286A8007F6D50CE0FFF766FD6B
:100C9000824605E0FFF762FDA0EB0A0159454CD8FA
:100CA000286A8007F6D41FB1E86920F08050E86117
:100CB000E06988B36968C1F38101022944D0022840
:100CC000C6F8608004D0FFF749FD044638E034E000
:100CD000FFF744FD074604E0FFF740FDC01B022874
:100CE0002BD828688001F7D4206AB0F5803F05D161
:100CF0006868A16820F4003008436860D4E90801FE
:100D00000843696821F4741108436860C6F860906C
:100D1000FFF724FD044606E025E000BFFFF71EFDB7
:100D2000001B022809D828688001F7D51BE000BF06
:100D3000FFF714FD001B022802D90320BDE8F88F3D
:100D400028688001F4D40EE00128F7D06868226A90
:100D500000F48031914204D1616A00F4701088423D
:100D600001D00120EAE70020E8E70000001002407F
:100D700000004242800442422000002000700040F7
:100D800010B5401EB0F1807F01D3012010BD4FF09F
:100D9000E02460610F21601700F053FE0020A06185
:100DA00007202061002010BD7047704770B590F893
:100DB0003C20012A26D0012480F83C40022280F801
:100DC0003D2003685A689D6822F070060A68324325
:100DD0005A600D4B02689A4208D0B2F1804F05D09C
:100DE0000A4B9A4202D00A4B9A4204D1496825F034
:100DF00080031943916080F83D40002180F83C1049
:100E0000084670BD022070BD002C01400004004067
:100E10000008004010B5040003D094F83D0010B164
:100E200007E0012010BD002084F83C00204600F0BF
:100E30001FF8022084F83D00211D206800F086FC88
:100E4000012084F8460084F83E0084F83F0084F8CE
:100E5000400084F8410084F8420084F8430084F89C
:100E6000440084F8450084F83D00002010BD0000D7
:100E700008B50068B0F1804F12D10A48C16941F04D
:100E80000101C161C069002200F00100009011461B
:100E90001C20FFF7C7FCBDE808401C20FFF7B4BCCE
:100EA00008BD00000010024090F83D10012901D05B
:100EB00001207047022180F83D100168CA6842F0A5
:100EC0000102CA6000680B49884208D0B0F1804F27
:100ED00005D00949884202D00849884204D1816876
:100EE00001F00701062903D0016841F0010101600A
:100EF00000207047002C0140000400400008004022
:100F000070B5044690F83C00012817D0012584F8FC
:100F10003C50022084F83D002068826822F077026D
:100F200022F47F4282600868502830D00DDC2028EF
:100F30004DD005DC98B310283BD148E0022070BDAD
:100F4000302844D0402834D139E0602828D0702897
:100F500006D0B0F5805F2CD0B0F5005F29D10AE053
:100F6000CB68D1E90121206800F026FC2068816867
:100F700041F0770109E0CB68D1E90121206800F058
:100F80001BFC2068816841F48041816011E0CA68DF
:100F90004968206800F022FC5021206807E016E034
:100FA000CA684968206800F02AFC6021206800F0C7
:100FB0000DFC84F83D50002084F83C0070BDCA68E8
:100FC0004968206800F00AFC40212068EFE72268A9
:100FD00001461046EBE7704770B5044600680169AA
:100FE0004FF00005C943890715D4C168C943890773
:100FF00011D4E91E016101202077206880698007F3
:10100000204602D0FFF7E7FF04E000F098F8204602
:1010100000F096F8257720680169C943490717D47D
:10102000C168C943490713D46FF00401016102206C
:1010300020772068806910F4407F204602D0FFF7B7
:10104000CAFF04E000F07BF8204600F079F825772D
:1010500020680169C943090716D4C168C943090753
:1010600012D46FF008010161042020772068C06964
:101070008007204602D0FFF7AEFF04E000F05FF8E3
:10108000204600F05DF8257720680169C943C9064C
:1010900017D4C168C943C90613D46FF010010161A8
:1010A000082020772068C06910F4407F204602D0D5
:1010B000FFF791FF04E000F042F8204600F040F80E
:1010C000257720680169C943C90708D1C168C943A8
:1010D000C90704D1891E0161204600F033F8206859
:1010E0000169C943090609D4C168C943090605D481
:1010F0006FF0800101612046FFF756FE206801690C
:10110000C943490609D4C168C943490605D46FF0EB
:1011100040010161204600F037F820680169C943A9
:1011200089060BD4C168C943890607D46FF0200132
:1011300001612046BDE87040FFF737BE70BD7047C3
:101140007047000010B50068B0F1804F16D10C4810
:1011500042F210720168491C016091420ED30021D5
:101160000160001DFFF730F8054982B2BDE810406C
:101170004FF6FF73091D034800F0B6B910BD00001B
:1011800000000020B000002070477047704700004A
:10119000F8B5026804461068D168536910F00F0F63
:1011A0004FF0000553D003F0010601F49077374368
:1011B0005FD0C20705D0CA0503D5226C42F00102F8
:1011C0002264420705D5DA0703D0226C42F00202FE
:1011D0002264820705D5DA0703D0226C42F00402AC
:1011E0002264020707D501F02002324303D0226CAB
:1011F00042F008022264226C002A34D0800604D512
:10120000880602D5204600F02CFB20684069216C3E
:10121000C0F38010090700D430B3204600F009FB6A
:101220002068416949061BD5416921F040014161AF
:10123000A06BA8B158494163A06BFFF77BF8002869
:1012400011D0A06B416B01B0BDE8F04008478306A8
:101250000FD58B060DD52046BDE8F84000F001BB48
:101260002046FFF793FFF8BD2046FFF78FFF256468
:10127000F8BD266B2023012E52D1C60650D5CE06CE
:101280004ED5106850680090506940062AD5A16B71
:10129000086840680004000CEAD0A68D8642E7D9B1
:1012A000E0858869202818D0D06820F48070D0604C
:1012B0002068416921F0010141612068416921F004
:1012C0004001416184F83E3025632068C16821F007
:1012D0001001C160A06BFFF70AF8A08DE18D401AE4
:1012E00081B219E0A08DE18D401A81B2E08D002815
:1012F000BED00029BCD0D06820F49070D0602068A7
:10130000426922F00102426184F83E302563206880
:10131000C26822F01002C2602046FFF736FFF8BD17
:1013200005062BD50D0629D594F83D002128F6D1C8
:10133000A068B0F5805F01D12069B0B1206A411C7E
:101340002162216800784860E08C401E0004000C97
:10135000E084E4D12068C16821F08001C160206888
:10136000C16841F04001C160F8BD206A0088C0F347
:1013700008005060206A801C2062E5E74006F3D533
:101380004806F1D5D168204621F04001D16084F8AB
:101390003D3000F002F9F8BD2318000870B50400D4
:1013A00004D094F83D00002510B106E0012070BD86
:1013B00084F83C50204600F023F8242084F83D00B7
:1013C0002068C16821F40051C160204600F0A4FAF1
:1013D0002068016921F4904101612068416921F090
:1013E0002A0141612068C16841F40051C16025644F
:1013F000202084F83D0084F83E00002070BD0000ED
:101400002DE9F04186B00024064600940194029430
:10141000039400682E49884257D12E48816941F4CF
:1014200080418161816901F480410491816941F0C9
:10143000040181618069284D00F0040004904FF49C
:101440000070009002200190032003906946284616
:10145000FFF794F82815CDE9000469462846029460
:10146000FFF78CF81E4D1D484FF08008C5E90004B9
:10147000C5E902482C6187146C61C5E90647284616
:10148000FFF74EF808B1FEF730FFB5636E62144DFA
:1014900012484435143801C51020A5E81101104840
:1014A00045F8104944306C61C5E90647FFF738F844
:1014B00008B1FEF71AFF75630022114625206E62FF
:1014C000FFF7B0F92520FFF79FF906B0BDE8F081DE
:1014D000003801400010024000080140580002405E
:1014E000F4000020704700002DE9F843044690F80E
:1014F0003D001F4616460D4620284CD1C5B1BEB151
:1015000094F83C00012846D0012084F83C004FF0BC
:101510000008C4F84080212084F83D00FFF71EF940
:10152000A6848146E684A068B0F5805F03D004E01D
:101530000120BDE8F883206928B12E465FF0000540
:1015400084F83C800EE00026FAE78021204600F077
:101550003FFAA0B9AEB116F8010B21684860E08CE3
:10156000401EE084E08C4B464FF0000200970028BC
:10157000EBD14FF04001204600F02AFA30B10320B1
:10158000D7E735F8020BC0F30800E6E7202084F81F
:101590003D000020CDE70220CBE77047FEE70000CA
:1015A000174808B5416941F0010141614069154999
:1015B00000F001000090144801604FF48041416048
:1015C000402181608021C160002101614161816110
:1015D000C161FEF7A5FF08B1FEF787FE00221146A4
:1015E0000E20FFF71FF90E20FFF70EF9002211461B
:1015F0000F20FFF717F9BDE808400F20FFF704B9E7
:10160000001002400800024024000020094808B5EC
:10161000816941F020018161816901F0200100911F
:10162000816941F004018161806900F0040000904B
:1016300008BD00000010024010B586B00024164816
:10164000009401940294039404944FF08041059413
:10165000C0E900144FF6FF71C0E9024104618461E2
:10166000FFF7D8FB08B1FEF740FE4FF48050009022
:1016700069460948FFF744FC08B1FEF736FE0494BA
:1016800004A905480594FFF791FB002801D0FEF757
:101690002CFE06B010BD0000680000200C4810B5FC
:1016A0000A4901604FF4E1314160002181600C2260
:1016B000C160C0E904128161C161FFF76FFE0028BB
:1016C00003D0BDE81040FEF710BE10BD0038014049
:1016D000B0000020FEE7FEE770477047FFF744B810
:1016E00030B58FB028216846FEF78DFD14210AA879
:1016F000FEF789FD01210804CDE9001000240294C1
:1017000002250491CDE907504FF4E0100990684696
:10171000FFF7A6F908B172B6FEE70F20CDE90A057A
:101720004FF48060CDE90C4002210AA80E94FFF727
:10173000ABF8002801D072B6FEE70FB030BD70479D
:101740000148FFF749BC000068000020F0B50268BE
:10175000164B174C174D4FF08047984205D0B842B2
:1017600003D0A04201D0A84203D122F070064A68FB
:101770003243984205D0B84203D0A04201D0A842DB
:1017800003D122F44074CA6822434C6922F08002DB
:10179000224302608A68C2620A688262984201D16A
:1017A0000969016301214161F0BD0000002C014085
:1017B000000400400008004010B5846842EA03229B
:1017C00024F47F440A432243826010BD826822F0E1
:1017D00070020A4342F007018160704710B5036A46
:1017E000046A24F001040462846924F0F00444EAE9
:1017F000021423F00A020A438461026210BD10B58C
:10180000036A23F0100303628369046A23F47043BC
:1018100043EA023224F0A00343EA0111826101622B
:1018200010BD10B5406A0021C185C184FFF7AEFC30
:1018300010BD0168CA6822F49072CA6001684A69E2
:1018400022F001024A61016B012904D10168CA68D2
:1018500022F01002CA60202180F83E1000210163AE
:10186000704708B590F83E10222901D0022008BD2B
:1018700082684FF480539A4201D1016921B1816A93
:101880009A421BD04AB10AE00268816A5268C2F3E8
:1018900008020A80816A891C08E0026972B1026844
:1018A000526802F07F020A70816A491C8162C18D10
:1018B000491E0904090CC18503D019E00268526869
:1018C000F1E70168CA6822F02002CA600168CA68AC
:1018D00022F48072CA6001684A6922F001024A61FA
:1018E000202180F83E10016B012903D0FFF7FAFD9B
:1018F000002008BD002101630168CA6822F01002BF
:10190000CA6001680A68D20602D50A68496800916F
:10191000818DFFF73AFCEBE770B50446006801697A
:10192000E26821F44051114301612169A068084334
:10193000616908432168CA6841F20C639A43024313
:10194000CA6020684169A26921F440711143416174
:101950001E492068884202D1FFF73CF801E0FFF7FA
:1019600029F800EBC00101EB0012606864218000DF
:10197000B2FBF0F3B3FBF1F36FF018067343B2FB65
:10198000F0F5B2FBF0F605EB8305322303EB05150A
:10199000B5FBF1F5B6FBF1F605F0F00505EB061524
:1019A000B2FBF0F6B2FBF0F0B0FBF1F06FF0180212
:1019B000504306EB800003EB0010B0FBF1F0216810
:1019C00000F00F002844886070BD0000003801401E
:1019D0002DE9F041984617460E460446069D1DE047
:1019E000681C1BD02DB1FEF7B9FEA0EB0800A84281
:1019F00014D92068C16821F4D071C16020684169A0
:101A000021F001014161202084F83D0084F83E006E
:101A1000002084F83C000320BDE8F08120680068C5
:101A200036EA000004D00020B842D9D00020F3E705
:101A30000120F9E70148FFF7ABBB0000B000002030
:101A4000FEE70907090E002804DB00F1E02080F81A
:101A50000014704700F00F0000F1E02080F8141D22
:101A600070470000FEF788FEFFF73AFEFFF7CEFD55
:101A7000FFF796FDFFF712FEFFF7DEFD0148FFF7C7
:101A800013FAFEE7680000200000000000000000DC
:101A90000102030406070809000000000102030414
:101AA000C01A0008000000202400000028010008DF
:101AB000E41A000824000020BC07000044010008CC
:101AC0000000000048656C6C6F2077696E646F776A
:101AD0007321000001000000100000000000000061
:041AE0000024F400EA
:04000005080000ED02
:00000001FF
